:100000000C94FA030C9417040C9417040C94170422
:100010000C9417040C9417040C9417040C941704F4
:100020000C9417040C9417040C9417040C941704E4
:100030000C9417040C9417040C9417040C941704D4
:100040000C9417040C9417040C9417040C941704C4
:100050000C94170410270E2709270227F726E926F4
:10006000D926C526AE2694267826582635260F266C
:10007000E625BB258C255B252625EF24B424772493
:100080003724F523AF2367231B23CE227D222A2288
:10009000D4217B212021C2206220FF1F9A1F321F02
:1000A000C81E5B1EEC1D7B1D071D911C191C9F1B90
:1000B000221BA31A231AA0191B1995180C188217B2
:1000C000F5166716D7154615B3141E148813F012CB
:1000D0005612BB111F118210E30F430FA20EFF0D2A
:1000E0005C0DB70C120C6B0BC40A1C0A7309C9080F
:1000F0001F087407C8061C066F05C20415046703B1
:10010000B9020B025C01AE00000052FFA4FEF5FD37
:1001100047FD99FCEBFB3EFB91FAE4F938F98CF8CA
:10012000E1F737F78DF6E4F53CF595F4EEF349F396
:10013000A4F201F25EF1BDF01DF07EEFE1EE45EEBE
:10014000AAED10ED79ECE2EB4DEBBAEA29EA99E978
:100150000BE97EE8F4E76BE7E5E660E6DDE55DE503
:10016000DEE461E4E7E36FE3F9E285E214E2A5E1AE
:1001700038E1CEE066E001E09EDF3EDFE0DE85DED6
:100180002CDED6DD83DD32DDE5DC99DC51DC0BDCF9
:10019000C9DB89DB4CDB11DBDADAA5DA74DA45DAA4
:1001A0001ADAF1D9CBD9A8D988D96CD952D93BD987
:1001B00027D917D909D9FED8F7D8F2D8F0D8F2D86C
:1001C000F7D8FED809D917D927D93BD952D96CD934
:1001D00088D9A8D9CBD9F1D91ADA45DA74DAA5DAEF
:1001E000DADA11DB4CDB89DBC9DB0BDC51DC99DCB7
:1001F000E5DC32DD83DDD6DD2CDE85DEE0DE3EDFD4
:100200009EDF01E066E0CEE038E1A5E114E285E2A0
:10021000F9E26FE3E7E361E4DEE45DE5DDE560E696
:10022000E5E66BE7F4E77EE80BE999E929EABAEA43
:100230004DEBE2EB78EC10EDAAED45EEE1EE7EEF52
:100240001DF0BDF05EF101F2A4F249F3EEF395F476
:100250003CF5E4F58DF637F7E1F78CF838F9E4F979
:1002600091FA3EFBEBFB99FC47FDF5FDA4FE52FF26
:100270000000AE005C010B02B90267031504C20462
:100280006F051C06C80674071F08C90873091C0AF5
:10029000C40A6B0B120CB70C5C0DFF0DA20E430FC2
:1002A000E30F82101F11BB115612F01288131E1497
:1002B000B3144615D7156716F51682170C1895183E
:1002C0001B19A019231AA31A221B9F1B191C911C6E
:1002D000071D7B1DEC1D5B1EC81E321F9A1FFF1FD2
:1002E0006220C22020217B21D4212A227D22CE22FD
:1002F0001B236723AF23F52337247724B424EF246B
:1003000026255B258C25BB25E6250F263526582678
:1003100078269426AE26C526D926E926F726022772
:1003200009270E270000AE005C010B02B90267032B
:100330001504C2046F051C06C80674071F08C90807
:1003400073091C0AC40A6B0B120CB70C5C0DFF0D71
:10035000A20E430FE30F82101F11BB115612F012B1
:1003600087131E14B3144615D7156716F516821792
:100370000C1895181B19A019231AA31A221B9F1BCE
:10038000191C911C071D7B1DEC1D5B1EC81E321F16
:100390009A1FFF1F6220C22020217B21D4212A2204
:1003A0007D22CE221B236723AF23F5233724772416
:1003B000B424EF2426255B258C25BB25E6250F26B6
:1003C0003526582678269426AE26C526D926E9262F
:1003D000F726022709270E2710270E2709270227AD
:1003E000F726E926D926C526AE269426782658264D
:1003F00035260F26E625BB258C255B252625EF24F3
:10040000B42477243724F523AF2367231B23CE227C
:100410007D222A22D4217B212021C2206220FF1F9D
:100420009A1F321FC81E5B1EEC1D7B1D071D911CF1
:10043000191C9F1B221BA31A231AA0191B199518FC
:100440000C188217F5166716D7154615B3141E1427
:100450008713F0125612BB111F118210E30F430FC6
:10046000A20EFF0D5C0DB70C120C6B0BC40A1C0A1C
:100470007309C9081F087407C8061C066F05C20463
:1004800015046703B9020B025C01AE00000052FFC5
:10049000A4FEF5FD47FD99FCEBFB3EFB91FAE4F968
:1004A00038F98CF8E1F737F78DF6E4F53CF595F47B
:1004B000EEF349F3A4F201F25EF1BDF01DF07EEF20
:1004C000E1EE45EEAAED10ED79ECE2EB4DEBBAEA88
:1004D00029EA99E90BE97EE8F4E76BE7E5E660E6EF
:1004E000DDE55DE5DEE461E4E7E36FE3F9E285E2A3
:1004F00014E2A5E138E1CEE066E001E09EDF3EDFF8
:10050000E0DE85DE2CDED6DD83DD32DDE5DC99DC68
:1005100051DC0BDCC9DB89DB4CDB11DBDADAA5DA79
:1005200074DA45DA1ADAF1D9CBD9A8D988D96CD9D5
:1005300052D93BD927D917D909D9FED8F7D8F2D83B
:10054000F0D8F2D8F7D8FED809D917D927D93BD98E
:1005500052D96CD988D9A8D9CBD9F1D91ADA45DAC8
:1005600074DAA5DADADA11DB4CDB89DBC9DB0BDC08
:1005700051DC99DCE5DC32DD83DDD6DD2CDE85DE89
:10058000E0DE3EDF9EDF01E066E0CEE038E1A5E19F
:1005900014E285E2F9E26FE3E7E361E4DEE45DE5BE
:1005A000DDE560E6E5E66BE7F4E77EE80BE999E96F
:1005B00029EABAEA4DEBE2EB78EC10EDAAED45EE54
:1005C000E1EE7EEF1DF0BDF05EF101F2A4F249F321
:1005D000EEF395F43CF5E4F58DF637F7E1F78CF89A
:1005E00038F9E4F991FA3EFBEBFB99FC47FDF5FD88
:1005F000A4FE52FF00000000000000000000000008
:1006000000000000000000000000000000000000EA
:100610000000000000050B10161C21272D32383D6C
:1006200043494E545A5F656A70767B81878C9297F6
:100630009DA3A8AE000B16212D38434E5A65707B42
:1006400087929DA8000B16212C38434E5A65707B6B
:1006500086929DA800102132435465768797A8059D
:10066000162738495A6A7B8C9DAE0B1C2D3D4E5F78
:10067000708192A300162D435A70879D00162C435B
:100680005A70869D00162D435970869D00162D4385
:100690005970879D001C3854708CA8102C496581B6
:1006A0009D05213D597692AE16324E6A87A30B27DF
:1006B000435F7B970021436587A816385A7B9D0BC3
:1006C0002D4E70920021436587A816385A7B9D0BEA
:1006D0002C4E709200274E769D10385F86AE2149D1
:1006E00070970B325981A81C436A92052C547BA346
:1006F000163D658C002D5A87002C5A86002D598690
:10070000002D5987002C5A87B32C5986002D5A8604
:10071000B32C5A870032659716497BAE2D5F921035
:100720004376A8275A8C0B3D70A321548605386A5E
:100730009D1C4E81003870A82C659D215992164E43
:10074000870B437BB33870A82D659D215A92164EB6
:10075000860B437B003D7B0543810B4986104E8C05
:100760001654921C5997215F9D2765A32C6AA832C5
:1007700070AE3876004387165A9D2D700043871659
:100780005A9D2C70004386165A9D2C700043861685
:10079000599D2D700049922770054E972D760B5468
:1007A0009D327B105AA33881165FA83D861C65AE2A
:1007B000438C216A004E9D388621700B59A84392C4
:1007C0002C7B1665B34E9D388621700B59A8439239
:1007D0002C7B16650054A8499D3D923287277B1CCF
:1007E000701065055AAE4EA34397388C2D81217643
:1007F000166A0B5F11241FBECFE5D8E0DEBFCDBF68
:1008000010E0A0E6B0E0E0E2F5E202C005900D9253
:10081000A238B107D9F711E0A2E8B0E001C01D92FB
:10082000A23AB107E1F70E9420070C948E120C94B3
:1008300000002F923F924F925F926F927F928F9221
:100840009F92AF92BF92CF92DF92EF92FF920F935F
:100850001F93DF93CF9300D000D000D0CDB7DEB789
:1008600082E890E09A8389831C821B82E981FA8165
:10087000608071808280938024803580468057809C
:1008800082E0C82E81E0D82EAB80BC80F501EC5010
:10089000FA4FE4918E2F90E00894A11CB11CF60150
:1008A000E190F190019111916F01880F991F880FCC
:1008B000991F9E838D83FC01EC5AFF4F65917491C3
:1008C000882777FD8095982FA80197010E94321202
:1008D000660E771E881E991EED81FE81EC5DFC4F31
:1008E00065917491882777FD8095982F222733276B
:1008F000A9012E193F09400B510B0E943212260EFE
:10090000371E481E591EF2E8CF16F1E0DF0609F047
:10091000BDCF8B819C8180969C838B83C401B30166
:1009200020E230E040E050E00E945112CA01B901DB
:1009300020E137E240E050E00E945112E981FA8163
:100940002083318342835383C201B10120E230E02E
:1009500040E050E00E945112CA01B90120E137E2A3
:1009600040E050E00E945112E981FA8124833583EE
:10097000468357833896FA83E9838B819C81E2E032
:1009800080309E0709F072CF26960FB6F894DEBF2E
:100990000FBECDBFCF91DF911F910F91FF90EF90D0
:1009A000DF90CF90BF90AF909F908F907F906F908F
:1009B0005F904F903F902F90089589E08EBD80E228
:1009C00093E09BBD8ABD089580EC87B982E886B923
:1009D0000895DF93CF9300D000D0CDB7DEB7369A1D
:1009E000349A84B190E09A83898385B190E09C83A6
:1009F0008B838B819C81982F88279C838B832B8171
:100A00003C8189819A81822B932B9C838B832B81C0
:100A10003C81C9010F900F900F900F90CF91DF9103
:100A20000895959A85E08A95F1F7000095980895C4
:100A3000969AE7ECF0E03197F1F700C0000025B39B
:100A4000982F92959F70207F922B95BB959AF5E0F9
:100A5000FA95F1F70000959895B3907F982B95BB88
:100A6000959A85E08A95F1F70000959808959698F3
:100A7000E7ECF0E03197F1F700C0000025B3982FC4
:100A800092959F70207F922B95BB959AF5E0FA95F1
:100A9000F1F70000959895B3907F982B95BB959AA8
:100AA00085E08A95F1F7000095980895969887EC6F
:100AB00090E00197F1F700C0000085B3807F85BB0F
:100AC000959A95E09A95F1F70000959885B3807F07
:100AD000816085BB959A85E08A95F1F7000095982D
:100AE0008FE19EE40197F1F700C0000008958FE0C8
:100AF00084BB81B3806681BBAC9A8FE59AEE019787
:100B0000F1F700C00000969887EC90E00197F1F7AC
:100B100000C0000085B3807F836085BB959A95E017
:100B20009A95F1F70000959885B3807F806385BB27
:100B3000959A85E08A95F1F7000095988FE99FE0F6
:100B40000197F1F700C00000969887EC90E00197BC
:100B5000F1F700C0000085B3807F836085BB959A64
:100B600095E09A95F1F70000959885B3807F8063B2
:100B700085BB959A85E08A95F1F7000095988FE8F6
:100B800091E00197F1F700C00000969887EC90E0A3
:100B90000197F1F700C0000085B3807F836085BBBB
:100BA000959A95E09A95F1F70000959885B3807F26
:100BB000806385BB959A85E08A95F1F7000095984A
:100BC000969887EC90E00197F1F700C0000085B39C
:100BD000807F826085BB959A95E09A95F1F7000039
:100BE000959885B3807F886285BB959A85E08A95C4
:100BF000F1F700009598969887EC90E00197F1F74F
:100C000000C0000085B3807F826085BB959A95E027
:100C10009A95F1F70000959885B3807F886285BB2F
:100C2000959A85E08A95F1F700009598969887EC5B
:100C300090E00197F1F700C0000085B3807F85BB8D
:100C4000959A95E09A95F1F70000959885B3807F85
:100C50008C6085BB959A85E08A95F1F700009598A0
:100C6000969887EC90E00197F1F700C0000085B3FB
:100C7000807F85BB959A95E09A95F1F7000095984D
:100C800085B3807F816085BB959A85E08A95F1F771
:100C9000000095988FE19EE40197F1F700C00000F5
:100CA000969887EC90E00197F1F700C0000085B3BB
:100CB000807F85BB959A95E09A95F1F7000095980D
:100CC00085B3807F866085BB959A85E08A95F1F72C
:100CD000000095980895613009F442C09698E7ECB9
:100CE000F0E03197F1F700C0000025B3207F2C60C1
:100CF00025BB959AF5E0FA95F1F70000959825B394
:100D0000207F206C25BB959A25E02A95F1F70000FD
:100D10009598FC012081222311F13196969A87EC57
:100D200090E00197F1F700C0000095B3822F829503
:100D30008F70907F892B85BB959A95E09A95F1F7F6
:100D40000000959885B3807F822B85BB959A25E01E
:100D50002A95F1F70000959821912223F9F608953C
:100D60009698E7ECF0E03197F1F700C0000025B36A
:100D7000207F286025BB959AF5E0FA95F1F70000F1
:100D8000959825B3207F2068BDCF969887EC90E09A
:100D90000197F1F700C0000085B3807F846085BBB8
:100DA000959A95E09A95F1F70000959885B3807F24
:100DB000806485BB959AE5E0EA95F1F70000959887
:100DC00021E03FEF2830E8F498E0969AE7ECF0E075
:100DD0003197F1F700C0000085B3807F85BB959AFD
:100DE000F5E0FA95F1F70000959885B3807F85BB13
:100DF000959A85E08A95F1F700009598915029170A
:100E000020F3922F969AE7ECF0E03197F1F700C0CB
:100E1000000085B38F6085BB959AF5E0FA95F1F7F0
:100E20000000959885B335BB959A85E08A95F1F7D2
:100E300000009598915031F72F5F293019F60895E9
:100E40002F923F924F925F926F927F928F929F92DA
:100E5000AF92BF92CF92DF92EF92FF920F931F93C8
:100E6000DF93CF93CDB7DEB72C970FB6F894DEBFE4
:100E70000FBECDBF80EC87B982E886B98FE084BB16
:100E800081B3806681BBAC9A8FE59AEE0197F1F74A
:100E900000C000009698A7ECB0E01197F1F700C0F1
:100EA000000085B3807F836085BB959AB5E0BA95D5
:100EB000F1F70000959885B3807F806385BB959A94
:100EC000E5E0EA95F1F7000095988FE99FE001973A
:100ED000F1F700C000009698A7ECB0E01197F1F789
:100EE00000C0000085B3807F836085BB959AB5E024
:100EF000BA95F1F70000959885B3807F806385BB34
:100F0000959AE5E0EA95F1F7000095988FE891E071
:100F10000197F1F700C000009698A7ECB0E0119798
:100F2000F1F700C0000085B3807F836085BB959A90
:100F3000B5E0BA95F1F70000959885B3807F80639E
:100F400085BB959AE5E0EA95F1F7000095989698AB
:100F500087EC90E00197F1F700C0000085B3807F37
:100F6000826085BB959A95E09A95F1F70000959877
:100F700085B3807F886285BB959AA5E0AA95F1F735
:100F8000000095989698E7ECF0E03197F1F700C0F3
:100F9000000085B3807F826085BB959AF5E0FA9565
:100FA000F1F70000959885B3807F886285BB959A9C
:100FB00025E02A95F1F700009598969887EC90E047
:100FC0000197F1F700C0000085B3807F85BB959A3B
:100FD00095E09A95F1F70000959885B3807F8C6035
:100FE00085BB959AA5E0AA95F1F70000959896988B
:100FF000E7ECF0E03197F1F700C0000085B3807FA7
:1010000085BB959AF5E0FA95F1F70000959885B3C0
:10101000807F816085BB959A25E02A95F1F70000D5
:1010200095988FE19EE40197F1F700C00000969833
:10103000A7ECB0E01197F1F700C0000085B3807F06
:1010400085BB959AB5E0BA95F1F70000959885B300
:10105000807F866085BB959AE5E0EA95F1F7000010
:1010600095980E94C506969887EC90E00197F1F755
:1010700000C0000085B3807F886085BB959A95E0AD
:101080009A95F1F70000959885B3807F806885BBBD
:10109000959AA5E0AA95F1F700009598E0E6F0E0B2
:1010A00091919923F9F0969AA7ECB0E01197F1F796
:1010B00000C0000025B3892F82958F70207F822B7E
:1010C00085BB959AB5E0BA95F1F70000959885B380
:1010D000807F892B85BB959A25E02A95F1F7000042
:1010E0009598DECF969887EC90E00197F1F700C0D5
:1010F000000085B3807F8C6085BB959A95E09A95BA
:10110000F1F70000959885B3807F806C85BB959A38
:10111000A5E0AA95F1F700009598E1E7F0E091913C
:101120009923F9F0969AA7ECB0E01197F1F700C077
:10113000000025B3892F82958F70207F822B85BB7D
:10114000959AB5E0BA95F1F70000959885B3807F40
:10115000892B85BB959A25E02A95F1F70000959893
:10116000DECF8FEF93EDA0E381509040A040E1F7F8
:1011700000C000009698A7ECB0E01197F1F700C00E
:10118000000085B3807F85BB959AB5E0BA95F1F7ED
:101190000000959885B3807F816085BB959AE5E0D6
:1011A000EA95F1F7000095988FE19EE40197F1F739
:1011B00000C0000089E08EBD80E293E09BBD8ABD47
:1011C00072E8272E71E0372E1DBC1CBC88B78061E9
:1011D00088BFE2E0F1E008B604FEFDCF369A349A0B
:1011E00084B190E09A83898385B190E09C838B835E
:1011F0008B819C81982F88279C838B832B813C81BA
:1012000089819A81822B932B9C838B838B819C81F8
:10121000AA2797FDA095BA2F81939193A193B1939B
:1012200088B7806188BF91E0E238F907A1F6A2E8AB
:10123000B0E0BA87A9871C861B86A985BA854D9020
:101240005D906D907C90139714962D913D914D91EA
:101250005C9117972D833E834F83588742E0A42EDD
:1012600041E0B42E8B849C84F401EC50FA4F04913D
:1012700010E00894811C911CF501C190D190E1907F
:10128000F1905F01000F111F000F111FF801EC5AC0
:10129000FF4F65917491882777FD8095982FA7015E
:1012A00096010E943212460E571E681E791E0C5D72
:1012B0001C4FF80165917491882777FD8095982FD0
:1012C00022273327A9012C193D094E095F090E94E5
:1012D00032122D813E814F815885260F371F481FBE
:1012E000591F2D833E834F8358872A143B0409F0EE
:1012F000BBCF4B855C85405E5F4F5C874B87C301EE
:10130000B20120E230E040E050E00E945112CA01F8
:10131000B90120E137E240E050E00E945112A98576
:10132000BA852D933D934D935C9313976D817E8188
:101330008F81988520E230E040E050E00E94511219
:10134000CA01B90120E137E240E050E00E945112A9
:10135000E985FA8524833583468357833896FA874F
:10136000E9872B853C8542E02030340709F065CFC2
:101370009698E7ECF0E03197F1F700C0000085B3F4
:10138000807F8C6085BB959AF5E0FA95F1F70000B7
:10139000959885B3807F806C85BB959A25E02A95CA
:1013A000F1F70000959880918A0090918B00A091B0
:1013B0008C00B0918D00B7FF02C00C94E111209118
:1013C0008E0030918F00409190005091910057FD18
:1013D000E8C7820F86958695883008F0AEC530E262
:1013E00030938301809393018091920090919300B8
:1013F000A0919400B0919500B7FDA3C620919600EE
:1014000030919700409198005091990057FD89C6FE
:10141000820F86958695883008F037C690E29093C3
:1014200084018093940180919A0090919B00A091F7
:101430009C00B0919D00B7FD64C620919E00309144
:101440009F004091A0005091A10057FD4AC6820F15
:1014500086958695883008F00CC6E0E2E093850119
:10146000809395018091A2009091A300A091A40087
:10147000B091A500B7FD25C62091A6003091A70028
:101480004091A8005091A90057FD0BC6820F869588
:101490008695883008F0E1C530E23093860180936C
:1014A00096018091AA009091AB00A091AC00B09100
:1014B000AD00B7FD66C62091AE003091AF004091FF
:1014C000B0005091B10057FD4CC6820F86958695AD
:1014D000883008F0B6C590E2909387018093970119
:1014E0008091B2009091B300A091B400B091B5008A
:1014F000B7FDA7C62091B6003091B7004091B80063
:101500005091B90057FD8DC6820F8695869588301B
:1015100008F08BC5E0E2E093880180939801809108
:10152000BA009091BB00A091BC00B091BD00B7FD86
:1015300068C62091BE003091BF004091C00050911C
:10154000C10057FD4EC6820F86958695883008F0FB
:1015500060C530E230938901809399018091C20087
:101560009091C300A091C400B091C500B7FD29C6F9
:101570002091C6003091C7004091C8005091C90029
:1015800057FD0FC6820F86958695883008F035C5C1
:1015900090E290938A0180939A018091CA00909181
:1015A000CB00A091CC00B091CD00B7FDAAC6209190
:1015B000CE003091CF004091D0005091D10057FD26
:1015C00090C6820F86958695883008F00AC5E0E2BD
:1015D000E0938B0180939B018091D2009091D30086
:1015E000A091D400B091D500B7FD6BC62091D60074
:1015F0003091D7004091D8005091D90057FD51C685
:10160000820F86958695883008F0DFC430E23093EB
:101610008C0180939C018091DA009091DB00A09175
:10162000DC00B091DD00B7FD2CC62091DE003091CA
:10163000DF004091E0005091E10057FD12C6820F9B
:1016400086958695883008F0B4C490E290938D0119
:1016500080939D018091E2009091E300A091E400CD
:10166000B091E500B7FD6DC62091E6003091E7002E
:101670004091E8005091E90057FD53C6820F8695CE
:101680008695883008F089C4E0E2E0938E0180936B
:101690009E018091EA009091EB00A091EC00B09146
:1016A000ED00B7FD6EC62091EE003091EF00409145
:1016B000F0005091F10057FD54C6820F8695869533
:1016C000883008F05EC430E230938F0180939F0130
:1016D0008091F2009091F300A091F400B091F50098
:1016E000B7FDB0C62091F6003091F7004091F800A8
:1016F0005091F90057FD96C6820F869586958830E1
:1017000008F033C490E2909390018093A0018091FF
:10171000FA009091FB00A091FC00B091FD00B7FD94
:1017200071C62091FE003091FF0040910001509160
:10173000010157FD57C6820F86958695883008F0BF
:1017400008C4E0E2E09391018093A101969887ECB0
:1017500090E00197F1F700C0000085B3807F8860BA
:1017600085BB959A95E09A95F1F70000959885B319
:10177000807F806885BB959AA5E0AA95F1F7000067
:10178000959890918301969AE7ECF0E03197F1F704
:1017900000C0000085B3807F292F22952F70822BF7
:1017A00085BB959AF5E0FA95F1F70000959885B319
:1017B000807F892B85BB959A25E02A95F1F700005B
:1017C000959890918401969AA7ECB0E01197F1F763
:1017D00000C0000085B3807F292F22952F70822BB7
:1017E00085BB959AB5E0BA95F1F70000959885B359
:1017F000807F892B85BB959AE5E0EA95F1F700009B
:10180000959890918501969AA7ECB0E01197F1F721
:1018100000C0000085B3807F292F22952F70822B76
:1018200085BB959AB5E0BA95F1F70000959885B318
:10183000807F892B85BB959AE5E0EA95F1F700005A
:10184000959890918601969AA7ECB0E01197F1F7E0
:1018500000C0000085B3807F292F22952F70822B36
:1018600085BB959AB5E0BA95F1F70000959885B3D8
:10187000807F892B85BB959AE5E0EA95F1F700001A
:10188000959890918701969AA7ECB0E01197F1F79F
:1018900000C0000085B3807F292F22952F70822BF6
:1018A00085BB959AB5E0BA95F1F70000959885B398
:1018B000807F892B85BB959AE5E0EA95F1F70000DA
:1018C000959890918801969AA7ECB0E01197F1F75E
:1018D00000C0000085B3807F292F22952F70822BB6
:1018E00085BB959AB5E0BA95F1F70000959885B358
:1018F000807F892B85BB959AE5E0EA95F1F700009A
:10190000959890918901969AA7ECB0E01197F1F71C
:1019100000C0000085B3807F292F22952F70822B75
:1019200085BB959AB5E0BA95F1F70000959885B317
:10193000807F892B85BB959AE5E0EA95F1F7000059
:10194000959890918A01969AA7ECB0E01197F1F7DB
:1019500000C0000085B3807F292F22952F70822B35
:1019600085BB959AB5E0BA95F1F70000959885B3D7
:10197000807F892B85BB959AE5E0EA95F1F7000019
:10198000959890918B01969AA7ECB0E01197F1F79A
:1019900000C0000085B3807F292F22952F70822BF5
:1019A00085BB959AB5E0BA95F1F70000959885B397
:1019B000807F892B85BB959AE5E0EA95F1F70000D9
:1019C000959890918C01969AA7ECB0E01197F1F759
:1019D00000C0000085B3807F292F22952F70822BB5
:1019E00085BB959AB5E0BA95F1F70000959885B357
:1019F000807F892B85BB959AE5E0EA95F1F7000099
:101A0000959890918D01969AA7ECB0E01197F1F717
:101A100000C0000085B3807F292F22952F70822B74
:101A200085BB959AB5E0BA95F1F70000959885B316
:101A3000807F892B85BB959AE5E0EA95F1F7000058
:101A4000959890918E01969AA7ECB0E01197F1F7D6
:101A500000C0000085B3807F292F22952F70822B34
:101A600085BB959AB5E0BA95F1F70000959885B3D6
:101A7000807F892B85BB959AE5E0EA95F1F7000018
:101A8000959890918F01969AA7ECB0E01197F1F795
:101A900000C0000085B3807F292F22952F70822BF4
:101AA00085BB959AB5E0BA95F1F70000959885B396
:101AB000807F892B85BB959AE5E0EA95F1F70000D8
:101AC000959890919001969AA7ECB0E01197F1F754
:101AD00000C0000085B3807F292F22952F70822BB4
:101AE00085BB959AB5E0BA95F1F70000959885B356
:101AF000807F892B85BB959AE5E0EA95F1F7000098
:101B0000959890919101969AA7ECB0E01197F1F712
:101B100000C0000085B3807F292F22952F70822B73
:101B200085BB959AB5E0BA95F1F70000959885B315
:101B3000807F892B85BB959AE5E0EA95F1F7000057
:101B40009598969887EC90E00197F1F700C0000017
:101B500085B3807F8C6085BB959A95E09A95F1F767
:101B60000000959885B3807F806C85BB959AA5E031
:101B7000AA95F1F70000959890919301969AE7EC59
:101B8000F0E03197F1F700C0000085B3807F292F86
:101B900022952F70822B85BB959AF5E0FA95F1F787
:101BA0000000959885B3807F892B85BB959A25E0A9
:101BB0002A95F1F70000959890919401969AA7ECD8
:101BC000B0E01197F1F700C0000085B3807F292FA6
:101BD00022952F70822B85BB959AB5E0BA95F1F7C7
:101BE0000000959885B3807F892B85BB959AE5E0A9
:101BF000EA95F1F70000959890919501969AA7ECD7
:101C0000B0E01197F1F700C0000085B3807F292F65
:101C100022952F70822B85BB959AB5E0BA95F1F786
:101C20000000959885B3807F892B85BB959AE5E068
:101C3000EA95F1F70000959890919601969AA7EC95
:101C4000B0E01197F1F700C0000085B3807F292F25
:101C500022952F70822B85BB959AB5E0BA95F1F746
:101C60000000959885B3807F892B85BB959AE5E028
:101C7000EA95F1F70000959890919701969AA7EC54
:101C8000B0E01197F1F700C0000085B3807F292FE5
:101C900022952F70822B85BB959AB5E0BA95F1F706
:101CA0000000959885B3807F892B85BB959AE5E0E8
:101CB000EA95F1F70000959890919801969AA7EC13
:101CC000B0E01197F1F700C0000085B3807F292FA5
:101CD00022952F70822B85BB959AB5E0BA95F1F7C6
:101CE0000000959885B3807F892B85BB959AE5E0A8
:101CF000EA95F1F70000959890919901969AA7ECD2
:101D0000B0E01197F1F700C0000085B3807F292F64
:101D100022952F70822B85BB959AB5E0BA95F1F785
:101D20000000959885B3807F892B85BB959AE5E067
:101D3000EA95F1F70000959890919A01969AA7EC90
:101D4000B0E01197F1F700C0000085B3807F292F24
:101D500022952F70822B85BB959AB5E0BA95F1F745
:101D60000000959885B3807F892B85BB959AE5E027
:101D7000EA95F1F70000959890919B01969AA7EC4F
:101D8000B0E01197F1F700C0000085B3807F292FE4
:101D900022952F70822B85BB959AB5E0BA95F1F705
:101DA0000000959885B3807F892B85BB959AE5E0E7
:101DB000EA95F1F70000959890919C01969AA7EC0E
:101DC000B0E01197F1F700C0000085B3807F292FA4
:101DD00022952F70822B85BB959AB5E0BA95F1F7C5
:101DE0000000959885B3807F892B85BB959AE5E0A7
:101DF000EA95F1F70000959890919D01969AA7ECCD
:101E0000B0E01197F1F700C0000085B3807F292F63
:101E100022952F70822B85BB959AB5E0BA95F1F784
:101E20000000959885B3807F892B85BB959AE5E066
:101E3000EA95F1F70000959890919E01969AA7EC8B
:101E4000B0E01197F1F700C0000085B3807F292F23
:101E500022952F70822B85BB959AB5E0BA95F1F744
:101E60000000959885B3807F892B85BB959AE5E026
:101E7000EA95F1F70000959890919F01969AA7EC4A
:101E8000B0E01197F1F700C0000085B3807F292FE3
:101E900022952F70822B85BB959AB5E0BA95F1F704
:101EA0000000959885B3807F892B85BB959AE5E0E6
:101EB000EA95F1F7000095989091A001969AA7EC09
:101EC000B0E01197F1F700C0000085B3807F292FA3
:101ED00022952F70822B85BB959AB5E0BA95F1F7C4
:101EE0000000959885B3807F892B85BB959AE5E0A6
:101EF000EA95F1F7000095989091A101969AA7ECC8
:101F0000B0E01197F1F700C0000085B3807F292F62
:101F100022952F70822B85BB959AB5E0BA95F1F783
:101F20000000959885B3807F892B85BB959AE5E065
:101F3000EA95F1F70000959847C98850809383018E
:101F4000883018F057E05093830147E040939301A5
:101F50004BCA885080939101883018F027E0209375
:101F60009101F7E0F093A101F1CB885080939001AB
:101F7000883018F0B7E0B0939001A7E0A093A001DB
:101F8000C6CB885080938F01883018F057E050936B
:101F90008F0147E040939F019BCB885080938E0137
:101FA000883018F027E020938E01F7E0F0939E012F
:101FB00070CB885080938D01883018F0B7E0B093D3
:101FC0008D01A7E0A0939D0145CB885080938C01A3
:101FD000883018F057E050938C0147E040939C0103
:101FE0001ACB885080938B01883018F027E020931B
:101FF0008B01F7E0F0939B01EFCA885080938A0130
:10200000883018F0B7E0B0938A01A7E0A0939A0156
:10201000C4CA885080938901883018F057E05093E3
:10202000890147E04093990199CA885080938801BB
:10203000883018F027E020938801F7E0F0939801AA
:102040006ECA885080938701883018F0B7E0B0934B
:102050008701A7E0A093970143CA88508093860127
:10206000883018F057E05093860147E0409396017E
:1020700018CA885080938501883018F027E0209393
:102080008501F7E0F0939501EDC9885080938401B4
:10209000883018F0B7E0B0938401A7E0A0939401D2
:1020A000C2C950954095309521953F4F4F4F5F4F96
:1020B0002093A6003093A7004093A8005093A90056
:1020C000E5C9B095A095909581959F4FAF4FBF4FB3
:1020D0008093A2009093A300A093A400B093A500C6
:1020E000CBC950954095309521953F4F4F4F5F4F4D
:1020F00020939E0030939F004093A0005093A10036
:10210000A6C9B095A095909581959F4FAF4FBF4FB1
:1021100080939A0090939B00A0939C00B0939D00A5
:102120008CC950954095309521953F4F4F4F5F4F4B
:102130002093960030939700409398005093990015
:1021400067C9B095A095909581959F4FAF4FBF4FB0
:102150008093920090939300A0939400B093950085
:102160004DC950954095309521953F4F4F4F5F4F4A
:102170002093AE003093AF004093B0005093B10075
:10218000A4C9B095A095909581959F4FAF4FBF4F33
:102190008093AA009093AB00A093AC00B093AD00E5
:1021A0008AC950954095309521953F4F4F4F5F4FCD
:1021B0002093C6003093C7004093C8005093C900D5
:1021C000E1C9B095A095909581959F4FAF4FBF4FB6
:1021D0008093C2009093C300A093C400B093C50045
:1021E000C7C950954095309521953F4F4F4F5F4F50
:1021F0002093BE003093BF004093C0005093C100B5
:10220000A2C9B095A095909581959F4FAF4FBF4FB4
:102210008093BA009093BB00A093BC00B093BD0024
:1022200088C950954095309521953F4F4F4F5F4F4E
:102230002093B6003093B7004093B8005093B90094
:1022400063C9B095A095909581959F4FAF4FBF4FB3
:102250008093B2009093B300A093B400B093B50004
:1022600049C950954095309521953F4F4F4F5F4F4D
:102270002093DE003093DF004093E0005093E100B4
:10228000DEC9B095A095909581959F4FAF4FBF4FF8
:102290008093DA009093DB00A093DC00B093DD0024
:1022A000C4C950954095309521953F4F4F4F5F4F92
:1022B0002093D6003093D7004093D8005093D90094
:1022C0009FC9B095A095909581959F4FAF4FBF4FF7
:1022D0008093D2009093D300A093D400B093D50004
:1022E00085C950954095309521953F4F4F4F5F4F91
:1022F0002093CE003093CF004093D0005093D10074
:1023000060C9B095A095909581959F4FAF4FBF4FF5
:102310008093CA009093CB00A093CC00B093CD00E3
:1023200046C950954095309521953F4F4F4F5F4F8F
:102330002093E6003093E7004093E8005093E900D3
:102340009DC9B095A095909581959F4FAF4FBF4F78
:102350008093E2009093E300A093E400B093E50043
:1023600083C950954095309521953F4F4F4F5F4F12
:102370002093EE003093EF004093F0005093F10073
:102380009CC9B095A095909581959F4FAF4FBF4F39
:102390008093EA009093EB00A093EC00B093ED00E3
:1023A00082C950954095309521953F4F4F4F5F4FD3
:1023B00020938E0030938F004093900050939100B3
:1023C00008C8B095A095909581959F4FAF4FBF4F8E
:1023D00080938A0090938B00A0938C00B0938D0023
:1023E0000C94DF0950954095309521953F4F4F4F04
:1023F0005F4F2093FE003093FF0040930001509305
:10240000010199C9B095A095909581959F4FAF4FC7
:10241000BF4F8093FA009093FB00A093FC00B09311
:10242000FD007FC950954095309521953F4F4F4F06
:102430005F4F2093F6003093F7004093F8005093DD
:10244000F9005AC9B095A095909581959F4FAF4FCF
:10245000BF4F8093F2009093F300A093F400B093E9
:10246000F50040C9629FD001739FF001829FE00D8B
:10247000F11D649FE00DF11D929FF00D839FF00D03
:10248000749FF00D659FF00D9927729FB00DE11DAF
:10249000F91F639FB00DE11DF91FBD01CF0111248C
:1024A000089597FB092E05260ED057FD04D014D0B1
:1024B0000AD0001C38F450954095309521953F4F37
:1024C0004F4F5F4F0895F6F7909580957095619501
:1024D0007F4F8F4F9F4F0895A1E21A2EAA1BBB1B5F
:1024E000FD010DC0AA1FBB1FEE1FFF1FA217B307E0
:1024F000E407F50720F0A21BB30BE40BF50B661FF6
:10250000771F881F991F1A9469F7609570958095B9
:1025100090959B01AC01BD01CF010895F894FFCFC8
:10252000444654205350454354524F4D4554455210
:102530000030487A202D2031304B487A2831362916
:02254000000099
:00000001FF
